:03000000020AC72A
:0C0AC700787FE4F6D8FD758153020B0E19
:050D0E00011900C106FF
:100E1B00C2AF758901758CFC758A67D2A9D28CD249
:020E2B00AF22F4
:03000B00020CB133
:100CB100C0E0C0F0C083C082C0D075D000C000C009
:0D0CC10001C002C003C004C005C006C0078A
:100CCE000519758CFC758A671209332000033001F3
:100CDE0007B20630060F800AE519C3942140067547
:050CEE001900120A06C6
:100CF300D007D006D005D004D003D002D001D00055
:0B0D0300D0D0D082D083D0F0D0E032FE
:100E2D00313233263435362537383928301B0D27E6
:100D1300C104C10501420001430010440101010166
:100D23000101010101010101010101011021010181
:100D33000101010101010101010101010101013170
:100D4300001032FFFFFFFFFFFFFFFFFFFFFFFFFF6B
:030D5300FFFFFFA0
:100B53008F0AE50AC394304007E50AD39439406FFE
:100B6300E50AB4260CD2007FFF7E007D007C008066
:100B73000FE50AB4280DD2017F017EFF7DFF7CFFC4
:100B8300020C46E50AB4251DD2020542E542C39490
:100B9300734007E4F542F543D2047F1E7E007D00D7
:100BA3007C00020DACE50AB4271DD2030543E543DF
:100BB300C394734007E4F543F542D2057FE27EFF19
:100BC3007DFF7CFF020DE5E50AB41B03120E4D22E7
:100BD300E4F508E4F509E50825E025E024442509C2
:100BE300F8E6FFE50825E025E024212509F8E6FEDF
:100BF3006F603DEE6020E50825E025E0242DF582B9
:100C0300E4340EF583E5822509F582E43583F58323
:100C1300E493FF120B53E50825E025E0244425095E
:100C2300F8E6FFE50825E025E024212509F8A607D5
:100C33000509E509C39404409D0508E508C3940428
:020C43004091DE
:010C4500228C
:10093300E53125E025E02432F8E625E0FFA2A4E432
:10094300334FFFE53125E025E02432F8A607E531F2
:1009530025E025E02433F8E625E0FFA2A5E4334FA4
:10096300FFE53125E025E02433F8A607E53125E04E
:1009730025E02434F8E625E0FFA2A6E4334FFFE5A3
:100983003125E025E02434F8A607E53125E025E00C
:100993002435F8E625E0FFA2A7E4334FFFE5312530
:1009A300E025E02435F8A607E4FFE53125E025E05E
:1009B30024322FF8E6540FFE700EE53125E025E0D2
:1009C30024442FF8E4F6800FBE0F0CE53125E02513
:1009D300E024442FF876010FBF04CF0531533103D0
:1009E300E53114600F14601114601324037013D2E3
:1009F300A0C2A322D2A3C2A222D2A2C2A122D2A166
:020A0300C2A08F
:010A050022CE
:080E5B00120E1B120BD380FBE9
:100E3D0001030206040C08090109080C040602034B
:100D5600C102C103C100C101041500000000011455
:010D6600008C
:100C46008F128E118D108C0FC2AFE47FFFFEFDFC5C
:100C5600AB12AA11A910A80FC312084F7005751878
:100C6600FF801A74FF7F01FEFDFCAB12AA11A910CA
:100C7600A80FC312084F700D74FF751801F517F50C
:100C860016F5158023E4FF7E10FDFCAB12AA11A910
:100C960010A80F120800E47B687A01F9F8120D68B3
:0B0CA6008F188E178D168C15D2AF2210
:100DAC008F0E8E0D8D0C8C0B20040DC2AF8F188EF8
:100DBC00178D168C15D2AF22C204E4F50EF50DF585
:100DCC000CF50BF518F517F516F515D2017F017E0C
:090DDC00FF7DFF7CFF120C462292
:100DE5008F0E8E0D8D0C8C0B20050DC2AF8F188EBE
:100DF500178D168C15D2AF22C205E4F50EF50DF54B
:100E05000CF50BF518F517F516F515D2007FFFFE55
:060E1500FDFC120C462258
:0E0E4D00C2AFE4F518F517F516F515D2AF2271
:100A0600AF18AE17AD16AC15EC4D4E4F7003020A7B
:100A1600B9E4FFFEFDFCAB18AA17A916A815D31258
:100A2600084F402F051453140730000DE47FFFFED6
:100A3600FDFCA81512084F605074FF2518F518E53F
:100A46001734FFF517E51634FFF516E51534FFF5EF
:100A5600158036051453140730011574FF7F01FE07
:100A6600FDFCAB18AA17A916A815C312084F6019E2
:100A7600E4FAF9F8E5182401F518EA3517F517E947
:100A86003516F516E83515F5158590135313F0E46C
:100A9600FFFEFDFCAB18AA17A916A815D312084F1E
:100AA600E5144005900E3D8003900E459342138554
:100AB600139022E4F590F514C200C201C202C203EB
:010AC600220D
:100AD300020E5BE493A3F8E493A34003F68001F2D0
:100AE30008DFF48029E493A3F85407240CC8C33324
:100AF300C4540F4420C8834004F456800146F6DFF3
:100B0300E4800B0102040810204080900D0EE47E67
:100B1300019360BCA3FF543F30E509541FFEE493E7
:100B2300A360010ECF54C025E060A840B8E493A3AE
:100B3300FAE493A3F8E493A3C8C582C8CAC583CAD9
:100B4300F0A3C8C582C8CAC583CADFE9DEE780BE91
:010D6700008B
:10080000E88FF0A4CC8BF0A42CFCE98EF0A42CFC97
:100810008AF0EDA42CFCEA8EF0A4CDA8F08BF0A415
:100820002DCC3825F0FDE98FF0A42CCD35F0FCEB74
:100830008EF0A4FEA9F0EB8FF0A4CFC5F02ECD3939
:0F084000FEE43CFCEAA42DCE35F0FDE43CFC22A6
:100D6800C2D5E830E70FB2D5E4C39BFBE49AFAE4B6
:100D780099F9E498F8EC30E717B2D5120D9E1208ED
:100D8800A1E4C39BFBE49AFAE499F9E498F8800398
:100D98001208A130D50DE4C39FFFE49EFEE49DFD3B
:040DA800E49CFC22A9
:10084F00EB9FF5F0EA9E42F0E99D42F0EC6480C820
:06085F0064809845F022C0
:1008650075F008758200EF2FFFEE33FECD33CDCC4A
:1008750033CCC58233C5829BED9AEC99E5829840CD
:100885000CF582EE9BFEED9AFDEC99FC0FD5F0D6AA
:10089500E4CEFBE4CDFAE4CCF9A88222B800C1B9D4
:1008A5000059BA002DEC8BF084CFCECDFCE5F0CB12
:1008B500F97818EF2FFFEE33FEED33FDEC33FCEB4B
:1008C50033FB10D703994004EB99FB0FD8E5E4F906
:1008D500FA227818EF2FFFEE33FEED33FDEC33FCF3
:1008E500C933C910D7059BE99A4007EC9BFCE99AE7
:1008F500F90FD8E0E4C9FAE4CCFB2275F010EF2F2C
:10090500FFEE33FEED33FDCC33CCC833C810D7072B
:100915009BEC9AE899400AED9BFDEC9AFCE899F866
:0E0925000FD5F0DAE4CDFBE4CCFAE4C8F922F9
:00000001FF
